{
  "contractName": "SimpleStorage",
  "abi": [
    {
      "constant": false,
      "inputs": [
        {
          "name": "x",
          "type": "uint256"
        }
      ],
      "name": "set",
      "outputs": [],
      "payable": false,
      "stateMutability": "nonpayable",
      "type": "function"
    },
    {
      "constant": true,
      "inputs": [],
      "name": "get",
      "outputs": [
        {
          "name": "",
          "type": "uint256"
        }
      ],
      "payable": false,
      "stateMutability": "view",
      "type": "function"
    },
    {
      "constant": true,
      "inputs": [],
      "name": "getBalance",
      "outputs": [
        {
          "name": "",
          "type": "uint256"
        }
      ],
      "payable": false,
      "stateMutability": "view",
      "type": "function"
    }
  ],
  "bytecode": "0x608060405234801561001057600080fd5b5061013d806100206000396000f300608060405260043610610057576000357c0100000000000000000000000000000000000000000000000000000000900463ffffffff16806312065fe01461005c57806360fe47b1146100875780636d4ce63c146100b4575b600080fd5b34801561006857600080fd5b506100716100df565b6040518082815260200191505060405180910390f35b34801561009357600080fd5b506100b2600480360381019080803590602001909291905050506100fe565b005b3480156100c057600080fd5b506100c9610108565b6040518082815260200191505060405180910390f35b60003073ffffffffffffffffffffffffffffffffffffffff1631905090565b8060008190555050565b600080549050905600a165627a7a72305820d550be5aea69683cf6c85c2f2f1dba9306dca82dbb1a85a85fa37546fade66fe0029",
  "source": "// SPDX-License-Identifier: MIT\npragma solidity >=0.4.21 <0.7.0;\n\ncontract SimpleStorage {\n    uint256 storedData;\n\n    function set(uint256 x) public {\n        storedData = x;\n    }\n\n    function get() public view returns (uint256) {\n        return storedData;\n    }\n\n    function getBalance() public view returns (uint256) {\n        return address(this).balance;\n    }\n}\n",
  "sourcePath": "/Users/s91972/RD/Blockchain/Project/react-dapp/contracts/SimpleStorage.sol",
  "compiler": {
    "name": "solc",
    "version": "0.4.26+commit.4563c3fc.Emscripten.clang"
  },
  "schemaVersion": "3.3.4",
  "updatedAt": "2021-03-31T20:32:28.379Z",
  "networkType": "ethereum",
  "devdoc": {
    "methods": {}
  },
  "userdoc": {
    "methods": {}
  }
}